{
  "_format": "hh-sol-artifact-1",
  "contractName": "ClawGotchi",
  "sourceName": "contracts/ClawGotchi.sol",
  "abi": [
    {
      "inputs": [],
      "stateMutability": "nonpayable",
      "type": "constructor"
    },
    {
      "inputs": [],
      "name": "ERC721EnumerableForbiddenBatchMint",
      "type": "error"
    },
    {
      "inputs": [
        {
          "internalType": "address",
          "name": "sender",
          "type": "address"
        },
        {
          "internalType": "uint256",
          "name": "tokenId",
          "type": "uint256"
        },
        {
          "internalType": "address",
          "name": "owner",
          "type": "address"
        }
      ],
      "name": "ERC721IncorrectOwner",
      "type": "error"
    },
    {
      "inputs": [
        {
          "internalType": "address",
          "name": "operator",
          "type": "address"
        },
        {
          "internalType": "uint256",
          "name": "tokenId",
          "type": "uint256"
        }
      ],
      "name": "ERC721InsufficientApproval",
      "type": "error"
    },
    {
      "inputs": [
        {
          "internalType": "address",
          "name": "approver",
          "type": "address"
        }
      ],
      "name": "ERC721InvalidApprover",
      "type": "error"
    },
    {
      "inputs": [
        {
          "internalType": "address",
          "name": "operator",
          "type": "address"
        }
      ],
      "name": "ERC721InvalidOperator",
      "type": "error"
    },
    {
      "inputs": [
        {
          "internalType": "address",
          "name": "owner",
          "type": "address"
        }
      ],
      "name": "ERC721InvalidOwner",
      "type": "error"
    },
    {
      "inputs": [
        {
          "internalType": "address",
          "name": "receiver",
          "type": "address"
        }
      ],
      "name": "ERC721InvalidReceiver",
      "type": "error"
    },
    {
      "inputs": [
        {
          "internalType": "address",
          "name": "sender",
          "type": "address"
        }
      ],
      "name": "ERC721InvalidSender",
      "type": "error"
    },
    {
      "inputs": [
        {
          "internalType": "uint256",
          "name": "tokenId",
          "type": "uint256"
        }
      ],
      "name": "ERC721NonexistentToken",
      "type": "error"
    },
    {
      "inputs": [
        {
          "internalType": "address",
          "name": "owner",
          "type": "address"
        },
        {
          "internalType": "uint256",
          "name": "index",
          "type": "uint256"
        }
      ],
      "name": "ERC721OutOfBoundsIndex",
      "type": "error"
    },
    {
      "inputs": [
        {
          "internalType": "address",
          "name": "owner",
          "type": "address"
        }
      ],
      "name": "OwnableInvalidOwner",
      "type": "error"
    },
    {
      "inputs": [
        {
          "internalType": "address",
          "name": "account",
          "type": "address"
        }
      ],
      "name": "OwnableUnauthorizedAccount",
      "type": "error"
    },
    {
      "anonymous": false,
      "inputs": [
        {
          "indexed": true,
          "internalType": "address",
          "name": "owner",
          "type": "address"
        },
        {
          "indexed": true,
          "internalType": "address",
          "name": "approved",
          "type": "address"
        },
        {
          "indexed": true,
          "internalType": "uint256",
          "name": "tokenId",
          "type": "uint256"
        }
      ],
      "name": "Approval",
      "type": "event"
    },
    {
      "anonymous": false,
      "inputs": [
        {
          "indexed": true,
          "internalType": "address",
          "name": "owner",
          "type": "address"
        },
        {
          "indexed": true,
          "internalType": "address",
          "name": "operator",
          "type": "address"
        },
        {
          "indexed": false,
          "internalType": "bool",
          "name": "approved",
          "type": "bool"
        }
      ],
      "name": "ApprovalForAll",
      "type": "event"
    },
    {
      "anonymous": false,
      "inputs": [
        {
          "indexed": true,
          "internalType": "address",
          "name": "previousOwner",
          "type": "address"
        },
        {
          "indexed": true,
          "internalType": "address",
          "name": "newOwner",
          "type": "address"
        }
      ],
      "name": "OwnershipTransferred",
      "type": "event"
    },
    {
      "anonymous": false,
      "inputs": [
        {
          "indexed": true,
          "internalType": "address",
          "name": "from",
          "type": "address"
        },
        {
          "indexed": true,
          "internalType": "address",
          "name": "to",
          "type": "address"
        },
        {
          "indexed": true,
          "internalType": "uint256",
          "name": "tokenId",
          "type": "uint256"
        }
      ],
      "name": "Transfer",
      "type": "event"
    },
    {
      "inputs": [],
      "name": "FEED_INTERVAL",
      "outputs": [
        {
          "internalType": "uint256",
          "name": "",
          "type": "uint256"
        }
      ],
      "stateMutability": "view",
      "type": "function"
    },
    {
      "inputs": [],
      "name": "HIBERNATION_TIME",
      "outputs": [
        {
          "internalType": "uint256",
          "name": "",
          "type": "uint256"
        }
      ],
      "stateMutability": "view",
      "type": "function"
    },
    {
      "inputs": [
        {
          "internalType": "address",
          "name": "to",
          "type": "address"
        },
        {
          "internalType": "uint256",
          "name": "tokenId",
          "type": "uint256"
        }
      ],
      "name": "approve",
      "outputs": [],
      "stateMutability": "nonpayable",
      "type": "function"
    },
    {
      "inputs": [
        {
          "internalType": "address",
          "name": "owner",
          "type": "address"
        }
      ],
      "name": "balanceOf",
      "outputs": [
        {
          "internalType": "uint256",
          "name": "",
          "type": "uint256"
        }
      ],
      "stateMutability": "view",
      "type": "function"
    },
    {
      "inputs": [],
      "name": "baseTokenURI",
      "outputs": [
        {
          "internalType": "string",
          "name": "",
          "type": "string"
        }
      ],
      "stateMutability": "view",
      "type": "function"
    },
    {
      "inputs": [
        {
          "internalType": "uint256",
          "name": "tokenId",
          "type": "uint256"
        }
      ],
      "name": "feed",
      "outputs": [],
      "stateMutability": "nonpayable",
      "type": "function"
    },
    {
      "inputs": [
        {
          "internalType": "uint256",
          "name": "tokenId",
          "type": "uint256"
        }
      ],
      "name": "getApproved",
      "outputs": [
        {
          "internalType": "address",
          "name": "",
          "type": "address"
        }
      ],
      "stateMutability": "view",
      "type": "function"
    },
    {
      "inputs": [
        {
          "internalType": "uint256",
          "name": "tokenId",
          "type": "uint256"
        }
      ],
      "name": "getStatus",
      "outputs": [
        {
          "internalType": "string",
          "name": "",
          "type": "string"
        }
      ],
      "stateMutability": "view",
      "type": "function"
    },
    {
      "inputs": [
        {
          "internalType": "address",
          "name": "owner",
          "type": "address"
        },
        {
          "internalType": "address",
          "name": "operator",
          "type": "address"
        }
      ],
      "name": "isApprovedForAll",
      "outputs": [
        {
          "internalType": "bool",
          "name": "",
          "type": "bool"
        }
      ],
      "stateMutability": "view",
      "type": "function"
    },
    {
      "inputs": [
        {
          "internalType": "uint256",
          "name": "",
          "type": "uint256"
        }
      ],
      "name": "lobsters",
      "outputs": [
        {
          "internalType": "uint256",
          "name": "birthday",
          "type": "uint256"
        },
        {
          "internalType": "uint256",
          "name": "lastFed",
          "type": "uint256"
        },
        {
          "internalType": "uint256",
          "name": "level",
          "type": "uint256"
        },
        {
          "internalType": "bool",
          "name": "isHibernating",
          "type": "bool"
        }
      ],
      "stateMutability": "view",
      "type": "function"
    },
    {
      "inputs": [],
      "name": "mint",
      "outputs": [],
      "stateMutability": "nonpayable",
      "type": "function"
    },
    {
      "inputs": [],
      "name": "name",
      "outputs": [
        {
          "internalType": "string",
          "name": "",
          "type": "string"
        }
      ],
      "stateMutability": "view",
      "type": "function"
    },
    {
      "inputs": [],
      "name": "nextTokenId",
      "outputs": [
        {
          "internalType": "uint256",
          "name": "",
          "type": "uint256"
        }
      ],
      "stateMutability": "view",
      "type": "function"
    },
    {
      "inputs": [],
      "name": "owner",
      "outputs": [
        {
          "internalType": "address",
          "name": "",
          "type": "address"
        }
      ],
      "stateMutability": "view",
      "type": "function"
    },
    {
      "inputs": [
        {
          "internalType": "uint256",
          "name": "tokenId",
          "type": "uint256"
        }
      ],
      "name": "ownerOf",
      "outputs": [
        {
          "internalType": "address",
          "name": "",
          "type": "address"
        }
      ],
      "stateMutability": "view",
      "type": "function"
    },
    {
      "inputs": [],
      "name": "renounceOwnership",
      "outputs": [],
      "stateMutability": "nonpayable",
      "type": "function"
    },
    {
      "inputs": [
        {
          "internalType": "uint256",
          "name": "tokenId",
          "type": "uint256"
        }
      ],
      "name": "revive",
      "outputs": [],
      "stateMutability": "payable",
      "type": "function"
    },
    {
      "inputs": [
        {
          "internalType": "address",
          "name": "from",
          "type": "address"
        },
        {
          "internalType": "address",
          "name": "to",
          "type": "address"
        },
        {
          "internalType": "uint256",
          "name": "tokenId",
          "type": "uint256"
        }
      ],
      "name": "safeTransferFrom",
      "outputs": [],
      "stateMutability": "nonpayable",
      "type": "function"
    },
    {
      "inputs": [
        {
          "internalType": "address",
          "name": "from",
          "type": "address"
        },
        {
          "internalType": "address",
          "name": "to",
          "type": "address"
        },
        {
          "internalType": "uint256",
          "name": "tokenId",
          "type": "uint256"
        },
        {
          "internalType": "bytes",
          "name": "data",
          "type": "bytes"
        }
      ],
      "name": "safeTransferFrom",
      "outputs": [],
      "stateMutability": "nonpayable",
      "type": "function"
    },
    {
      "inputs": [
        {
          "internalType": "address",
          "name": "operator",
          "type": "address"
        },
        {
          "internalType": "bool",
          "name": "approved",
          "type": "bool"
        }
      ],
      "name": "setApprovalForAll",
      "outputs": [],
      "stateMutability": "nonpayable",
      "type": "function"
    },
    {
      "inputs": [
        {
          "internalType": "string",
          "name": "_newBaseURI",
          "type": "string"
        }
      ],
      "name": "setBaseURI",
      "outputs": [],
      "stateMutability": "nonpayable",
      "type": "function"
    },
    {
      "inputs": [
        {
          "internalType": "bytes4",
          "name": "interfaceId",
          "type": "bytes4"
        }
      ],
      "name": "supportsInterface",
      "outputs": [
        {
          "internalType": "bool",
          "name": "",
          "type": "bool"
        }
      ],
      "stateMutability": "view",
      "type": "function"
    },
    {
      "inputs": [],
      "name": "symbol",
      "outputs": [
        {
          "internalType": "string",
          "name": "",
          "type": "string"
        }
      ],
      "stateMutability": "view",
      "type": "function"
    },
    {
      "inputs": [
        {
          "internalType": "uint256",
          "name": "index",
          "type": "uint256"
        }
      ],
      "name": "tokenByIndex",
      "outputs": [
        {
          "internalType": "uint256",
          "name": "",
          "type": "uint256"
        }
      ],
      "stateMutability": "view",
      "type": "function"
    },
    {
      "inputs": [
        {
          "internalType": "address",
          "name": "owner",
          "type": "address"
        },
        {
          "internalType": "uint256",
          "name": "index",
          "type": "uint256"
        }
      ],
      "name": "tokenOfOwnerByIndex",
      "outputs": [
        {
          "internalType": "uint256",
          "name": "",
          "type": "uint256"
        }
      ],
      "stateMutability": "view",
      "type": "function"
    },
    {
      "inputs": [
        {
          "internalType": "uint256",
          "name": "tokenId",
          "type": "uint256"
        }
      ],
      "name": "tokenURI",
      "outputs": [
        {
          "internalType": "string",
          "name": "",
          "type": "string"
        }
      ],
      "stateMutability": "view",
      "type": "function"
    },
    {
      "inputs": [],
      "name": "totalSupply",
      "outputs": [
        {
          "internalType": "uint256",
          "name": "",
          "type": "uint256"
        }
      ],
      "stateMutability": "view",
      "type": "function"
    },
    {
      "inputs": [
        {
          "internalType": "address",
          "name": "from",
          "type": "address"
        },
        {
          "internalType": "address",
          "name": "to",
          "type": "address"
        },
        {
          "internalType": "uint256",
          "name": "tokenId",
          "type": "uint256"
        }
      ],
      "name": "transferFrom",
      "outputs": [],
      "stateMutability": "nonpayable",
      "type": "function"
    },
    {
      "inputs": [
        {
          "internalType": "address",
          "name": "newOwner",
          "type": "address"
        }
      ],
      "name": "transferOwnership",
      "outputs": [],
      "stateMutability": "nonpayable",
      "type": "function"
    }
  ],
  "bytecode": "0x60806040523480156200001157600080fd5b50336040518060400160405280600b81526020017f436c61772d476f746368690000000000000000000000000000000000000000008152506040518060400160405280600481526020017f434c415700000000000000000000000000000000000000000000000000000000815250816000908162000090919062000472565b508060019081620000a2919062000472565b505050600073ffffffffffffffffffffffffffffffffffffffff168173ffffffffffffffffffffffffffffffffffffffff16036200011a5760006040517f1e4fbdf70000000000000000000000000000000000000000000000000000000081526004016200011191906200059e565b60405180910390fd5b6200012b816200013260201b60201c565b50620005bb565b6000600a60009054906101000a900473ffffffffffffffffffffffffffffffffffffffff16905081600a60006101000a81548173ffffffffffffffffffffffffffffffffffffffff021916908373ffffffffffffffffffffffffffffffffffffffff1602179055508173ffffffffffffffffffffffffffffffffffffffff168173ffffffffffffffffffffffffffffffffffffffff167f8be0079c531659141344cd1fd0a4f28419497f9722a3daafe3b4186f6b6457e060405160405180910390a35050565b600081519050919050565b7f4e487b7100000000000000000000000000000000000000000000000000000000600052604160045260246000fd5b7f4e487b7100000000000000000000000000000000000000000000000000000000600052602260045260246000fd5b600060028204905060018216806200027a57607f821691505b60208210810362000290576200028f62000232565b5b50919050565b60008190508160005260206000209050919050565b60006020601f8301049050919050565b600082821b905092915050565b600060088302620002fa7fffffffffffffffffffffffffffffffffffffffffffffffffffffffffffffffff82620002bb565b620003068683620002bb565b95508019841693508086168417925050509392505050565b6000819050919050565b6000819050919050565b6000620003536200034d62000347846200031e565b62000328565b6200031e565b9050919050565b6000819050919050565b6200036f8362000332565b620003876200037e826200035a565b848454620002c8565b825550505050565b600090565b6200039e6200038f565b620003ab81848462000364565b505050565b5b81811015620003d357620003c760008262000394565b600181019050620003b1565b5050565b601f8211156200042257620003ec8162000296565b620003f784620002ab565b8101602085101562000407578190505b6200041f6200041685620002ab565b830182620003b0565b50505b505050565b600082821c905092915050565b6000620004476000198460080262000427565b1980831691505092915050565b600062000462838362000434565b9150826002028217905092915050565b6200047d82620001f8565b67ffffffffffffffff81111562000499576200049862000203565b5b620004a5825462000261565b620004b2828285620003d7565b600060209050601f831160018114620004ea5760008415620004d5578287015190505b620004e1858262000454565b86555062000551565b601f198416620004fa8662000296565b60005b828110156200052457848901518255600182019150602085019450602081019050620004fd565b8683101562000544578489015162000540601f89168262000434565b8355505b6001600288020188555050505b505050505050565b600073ffffffffffffffffffffffffffffffffffffffff82169050919050565b6000620005868262000559565b9050919050565b620005988162000579565b82525050565b6000602082019050620005b560008301846200058d565b92915050565b61377c80620005cb6000396000f3fe6080604052600436106101c25760003560e01c806370a08231116100f7578063b88d4fde11610095578063e985e9c511610064578063e985e9c51461065c578063efcc715d14610699578063f2fde38b146106c4578063f59dfdfb146106ed576101c2565b8063b88d4fde1461058b578063c87b56dd146105b4578063d547cfb7146105f1578063e7faef4a1461061c576101c2565b80638baecc21116100d15780638baecc21146104f05780638da5cb5b1461050c57806395d89b4114610537578063a22cb46514610562576101c2565b806370a0823114610471578063715018a6146104ae57806375794a3c146104c5576101c2565b80632f745c591161016457806355f804b31161013e57806355f804b3146103a35780635c622a0e146103cc5780636352211e146104095780636544745014610446576101c2565b80632f745c591461030057806342842e0e1461033d5780634f6ccce714610366576101c2565b8063095ea7b3116101a0578063095ea7b31461026c5780631249c58b1461029557806318160ddd146102ac57806323b872dd146102d7576101c2565b806301ffc9a7146101c757806306fdde0314610204578063081812fc1461022f575b600080fd5b3480156101d357600080fd5b506101ee60048036038101906101e991906127e6565b610716565b6040516101fb919061282e565b60405180910390f35b34801561021057600080fd5b50610219610790565b60405161022691906128d9565b60405180910390f35b34801561023b57600080fd5b5061025660048036038101906102519190612931565b610822565b604051610263919061299f565b60405180910390f35b34801561027857600080fd5b50610293600480360381019061028e91906129e6565b61083e565b005b3480156102a157600080fd5b506102aa610854565b005b3480156102b857600080fd5b506102c16108f5565b6040516102ce9190612a35565b60405180910390f35b3480156102e357600080fd5b506102fe60048036038101906102f99190612a50565b610902565b005b34801561030c57600080fd5b50610327600480360381019061032291906129e6565b610a04565b6040516103349190612a35565b60405180910390f35b34801561034957600080fd5b50610364600480360381019061035f9190612a50565b610aad565b005b34801561037257600080fd5b5061038d60048036038101906103889190612931565b610acd565b60405161039a9190612a35565b60405180910390f35b3480156103af57600080fd5b506103ca60048036038101906103c59190612bd8565b610b43565b005b3480156103d857600080fd5b506103f360048036038101906103ee9190612931565b610b5e565b60405161040091906128d9565b60405180910390f35b34801561041557600080fd5b50610430600480360381019061042b9190612931565b610d30565b60405161043d919061299f565b60405180910390f35b34801561045257600080fd5b5061045b610d42565b6040516104689190612a35565b60405180910390f35b34801561047d57600080fd5b5061049860048036038101906104939190612c21565b610d49565b6040516104a59190612a35565b60405180910390f35b3480156104ba57600080fd5b506104c3610e03565b005b3480156104d157600080fd5b506104da610e17565b6040516104e79190612a35565b60405180910390f35b61050a60048036038101906105059190612931565b610e1d565b005b34801561051857600080fd5b50610521610f90565b60405161052e919061299f565b60405180910390f35b34801561054357600080fd5b5061054c610fba565b60405161055991906128d9565b60405180910390f35b34801561056e57600080fd5b5061058960048036038101906105849190612c7a565b61104c565b005b34801561059757600080fd5b506105b260048036038101906105ad9190612d5b565b611062565b005b3480156105c057600080fd5b506105db60048036038101906105d69190612931565b611087565b6040516105e891906128d9565b60405180910390f35b3480156105fd57600080fd5b506106066110e1565b60405161061391906128d9565b60405180910390f35b34801561062857600080fd5b50610643600480360381019061063e9190612931565b61116f565b6040516106539493929190612dde565b60405180910390f35b34801561066857600080fd5b50610683600480360381019061067e9190612e23565b6111ac565b604051610690919061282e565b60405180910390f35b3480156106a557600080fd5b506106ae611240565b6040516106bb9190612a35565b60405180910390f35b3480156106d057600080fd5b506106eb60048036038101906106e69190612c21565b611247565b005b3480156106f957600080fd5b50610714600480360381019061070f9190612931565b6112cd565b005b60007f780e9d63000000000000000000000000000000000000000000000000000000007bffffffffffffffffffffffffffffffffffffffffffffffffffffffff1916827bffffffffffffffffffffffffffffffffffffffffffffffffffffffff19161480610789575061078882611438565b5b9050919050565b60606000805461079f90612e92565b80601f01602080910402602001604051908101604052809291908181526020018280546107cb90612e92565b80156108185780601f106107ed57610100808354040283529160200191610818565b820191906000526020600020905b8154815290600101906020018083116107fb57829003601f168201915b5050505050905090565b600061082d8261151a565b50610837826115a2565b9050919050565b610850828261084b6115df565b6115e7565b5050565b6000600c600081548092919061086990612ef2565b91905055905061087933826115f9565b60405180608001604052804281526020014281526020016001815260200160001515815250600b600083815260200190815260200160002060008201518160000155602082015181600101556040820151816002015560608201518160030160006101000a81548160ff02191690831515021790555090505050565b6000600880549050905090565b600073ffffffffffffffffffffffffffffffffffffffff168273ffffffffffffffffffffffffffffffffffffffff16036109745760006040517f64a0ae9200000000000000000000000000000000000000000000000000000000815260040161096b919061299f565b60405180910390fd5b600061098883836109836115df565b611617565b90508373ffffffffffffffffffffffffffffffffffffffff168173ffffffffffffffffffffffffffffffffffffffff16146109fe578382826040517f64283d7b0000000000000000000000000000000000000000000000000000000081526004016109f593929190612f3a565b60405180910390fd5b50505050565b6000610a0f83610d49565b8210610a545782826040517fa57d13dc000000000000000000000000000000000000000000000000000000008152600401610a4b929190612f71565b60405180910390fd5b600660008473ffffffffffffffffffffffffffffffffffffffff1673ffffffffffffffffffffffffffffffffffffffff168152602001908152602001600020600083815260200190815260200160002054905092915050565b610ac883838360405180602001604052806000815250611062565b505050565b6000610ad76108f5565b8210610b1d576000826040517fa57d13dc000000000000000000000000000000000000000000000000000000008152600401610b14929190612f71565b60405180910390fd5b60088281548110610b3157610b30612f9a565b5b90600052602060002001549050919050565b610b4b611734565b80600d9081610b5a9190613175565b5050565b60606000600b60008481526020019081526020016000206040518060800160405290816000820154815260200160018201548152602001600282015481526020016003820160009054906101000a900460ff16151515158152505090506203f4808160200151610bce9190613247565b421115610c13576040518060400160405280600b81526020017f48696265726e6174696e67000000000000000000000000000000000000000000815250915050610d2b565b6001816040015103610c5d576040518060400160405280600381526020017f4567670000000000000000000000000000000000000000000000000000000000815250915050610d2b565b6002816040015103610ca7576040518060400160405280600481526020017f4261627900000000000000000000000000000000000000000000000000000000815250915050610d2b565b6003816040015103610cf1576040518060400160405280600481526020017f5465656e00000000000000000000000000000000000000000000000000000000815250915050610d2b565b6040518060400160405280600981526020017f42617365204b696e6700000000000000000000000000000000000000000000008152509150505b919050565b6000610d3b8261151a565b9050919050565b6201518081565b60008073ffffffffffffffffffffffffffffffffffffffff168273ffffffffffffffffffffffffffffffffffffffff1603610dbc5760006040517f89c62b64000000000000000000000000000000000000000000000000000000008152600401610db3919061299f565b60405180910390fd5b600360008373ffffffffffffffffffffffffffffffffffffffff1673ffffffffffffffffffffffffffffffffffffffff168152602001908152602001600020549050919050565b610e0b611734565b610e1560006117bb565b565b600c5481565b3373ffffffffffffffffffffffffffffffffffffffff16610e3d82610d30565b73ffffffffffffffffffffffffffffffffffffffff1614610e93576040517f08c379a0000000000000000000000000000000000000000000000000000000008152600401610e8a906132c7565b60405180910390fd5b6203f480600b600083815260200190815260200160002060010154610eb89190613247565b4211610ef9576040517f08c379a0000000000000000000000000000000000000000000000000000000008152600401610ef090613333565b60405180910390fd5b66038d7ea4c68000341015610f43576040517f08c379a0000000000000000000000000000000000000000000000000000000008152600401610f3a9061339f565b60405180910390fd5b42600b6000838152602001908152602001600020600101819055506000600b600083815260200190815260200160002060030160006101000a81548160ff02191690831515021790555050565b6000600a60009054906101000a900473ffffffffffffffffffffffffffffffffffffffff16905090565b606060018054610fc990612e92565b80601f0160208091040260200160405190810160405280929190818152602001828054610ff590612e92565b80156110425780601f1061101757610100808354040283529160200191611042565b820191906000526020600020905b81548152906001019060200180831161102557829003601f168201915b5050505050905090565b61105e6110576115df565b8383611881565b5050565b61106d848484610902565b6110816110786115df565b858585856119f0565b50505050565b60606110928261151a565b506000600b6000848152602001908152602001600020600201549050600d6110b982611ba1565b6040516020016110ca9291906134ca565b604051602081830303815290604052915050919050565b600d80546110ee90612e92565b80601f016020809104026020016040519081016040528092919081815260200182805461111a90612e92565b80156111675780601f1061113c57610100808354040283529160200191611167565b820191906000526020600020905b81548152906001019060200180831161114a57829003601f168201915b505050505081565b600b6020528060005260406000206000915090508060000154908060010154908060020154908060030160009054906101000a900460ff16905084565b6000600560008473ffffffffffffffffffffffffffffffffffffffff1673ffffffffffffffffffffffffffffffffffffffff16815260200190815260200160002060008373ffffffffffffffffffffffffffffffffffffffff1673ffffffffffffffffffffffffffffffffffffffff16815260200190815260200160002060009054906101000a900460ff16905092915050565b6203f48081565b61124f611734565b600073ffffffffffffffffffffffffffffffffffffffff168173ffffffffffffffffffffffffffffffffffffffff16036112c15760006040517f1e4fbdf70000000000000000000000000000000000000000000000000000000081526004016112b8919061299f565b60405180910390fd5b6112ca816117bb565b50565b3373ffffffffffffffffffffffffffffffffffffffff166112ed82610d30565b73ffffffffffffffffffffffffffffffffffffffff1614611343576040517f08c379a000000000000000000000000000000000000000000000000000000000815260040161133a906132c7565b60405180910390fd5b6000600b6000838152602001908152602001600020905061a8c0816001015461136c9190613247565b4210156113ae576040517f08c379a00000000000000000000000000000000000000000000000000000000081526004016113a590613545565b60405180910390fd5b6203f48081600101546113c19190613247565b421115611403576040517f08c379a00000000000000000000000000000000000000000000000000000000081526004016113fa906135b1565b60405180910390fd5b4281600101819055506004816002015410156114345780600201600081548092919061142e90612ef2565b91905055505b5050565b60007f80ac58cd000000000000000000000000000000000000000000000000000000007bffffffffffffffffffffffffffffffffffffffffffffffffffffffff1916827bffffffffffffffffffffffffffffffffffffffffffffffffffffffff1916148061150357507f5b5e139f000000000000000000000000000000000000000000000000000000007bffffffffffffffffffffffffffffffffffffffffffffffffffffffff1916827bffffffffffffffffffffffffffffffffffffffffffffffffffffffff1916145b80611513575061151282611c6f565b5b9050919050565b60008061152683611cd9565b9050600073ffffffffffffffffffffffffffffffffffffffff168173ffffffffffffffffffffffffffffffffffffffff160361159957826040517f7e2732890000000000000000000000000000000000000000000000000000000081526004016115909190612a35565b60405180910390fd5b80915050919050565b60006004600083815260200190815260200160002060009054906101000a900473ffffffffffffffffffffffffffffffffffffffff169050919050565b600033905090565b6115f48383836001611d16565b505050565b611613828260405180602001604052806000815250611edb565b5050565b600080611625858585611eff565b9050600073ffffffffffffffffffffffffffffffffffffffff168173ffffffffffffffffffffffffffffffffffffffff16036116695761166484612119565b6116a8565b8473ffffffffffffffffffffffffffffffffffffffff168173ffffffffffffffffffffffffffffffffffffffff16146116a7576116a68185612162565b5b5b600073ffffffffffffffffffffffffffffffffffffffff168573ffffffffffffffffffffffffffffffffffffffff16036116ea576116e58461224d565b611729565b8473ffffffffffffffffffffffffffffffffffffffff168173ffffffffffffffffffffffffffffffffffffffff161461172857611727858561231e565b5b5b809150509392505050565b61173c6115df565b73ffffffffffffffffffffffffffffffffffffffff1661175a610f90565b73ffffffffffffffffffffffffffffffffffffffff16146117b95761177d6115df565b6040517f118cdaa70000000000000000000000000000000000000000000000000000000081526004016117b0919061299f565b60405180910390fd5b565b6000600a60009054906101000a900473ffffffffffffffffffffffffffffffffffffffff16905081600a60006101000a81548173ffffffffffffffffffffffffffffffffffffffff021916908373ffffffffffffffffffffffffffffffffffffffff1602179055508173ffffffffffffffffffffffffffffffffffffffff168173ffffffffffffffffffffffffffffffffffffffff167f8be0079c531659141344cd1fd0a4f28419497f9722a3daafe3b4186f6b6457e060405160405180910390a35050565b600073ffffffffffffffffffffffffffffffffffffffff168273ffffffffffffffffffffffffffffffffffffffff16036118f257816040517f5b08ba180000000000000000000000000000000000000000000000000000000081526004016118e9919061299f565b60405180910390fd5b80600560008573ffffffffffffffffffffffffffffffffffffffff1673ffffffffffffffffffffffffffffffffffffffff16815260200190815260200160002060008473ffffffffffffffffffffffffffffffffffffffff1673ffffffffffffffffffffffffffffffffffffffff16815260200190815260200160002060006101000a81548160ff0219169083151502179055508173ffffffffffffffffffffffffffffffffffffffff168373ffffffffffffffffffffffffffffffffffffffff167f17307eab39ab6107e8899845ad3d59bd9653f200f220920489ca2b5937696c31836040516119e3919061282e565b60405180910390a3505050565b60008373ffffffffffffffffffffffffffffffffffffffff163b1115611b9a578273ffffffffffffffffffffffffffffffffffffffff1663150b7a02868685856040518563ffffffff1660e01b8152600401611a4f9493929190613626565b6020604051808303816000875af1925050508015611a8b57506040513d601f19601f82011682018060405250810190611a889190613687565b60015b611b0f573d8060008114611abb576040519150601f19603f3d011682016040523d82523d6000602084013e611ac0565b606091505b506000815103611b0757836040517f64a0ae92000000000000000000000000000000000000000000000000000000008152600401611afe919061299f565b60405180910390fd5b805160208201fd5b63150b7a0260e01b7bffffffffffffffffffffffffffffffffffffffffffffffffffffffff1916817bffffffffffffffffffffffffffffffffffffffffffffffffffffffff191614611b9857836040517f64a0ae92000000000000000000000000000000000000000000000000000000008152600401611b8f919061299f565b60405180910390fd5b505b5050505050565b606060006001611bb0846123a9565b01905060008167ffffffffffffffff811115611bcf57611bce612aad565b5b6040519080825280601f01601f191660200182016040528015611c015781602001600182028036833780820191505090505b509050600082602083010190505b600115611c64578080600190039150507f3031323334353637383961626364656600000000000000000000000000000000600a86061a8153600a8581611c5857611c576136b4565b5b04945060008503611c0f575b819350505050919050565b60007f01ffc9a7000000000000000000000000000000000000000000000000000000007bffffffffffffffffffffffffffffffffffffffffffffffffffffffff1916827bffffffffffffffffffffffffffffffffffffffffffffffffffffffff1916149050919050565b60006002600083815260200190815260200160002060009054906101000a900473ffffffffffffffffffffffffffffffffffffffff169050919050565b8080611d4f5750600073ffffffffffffffffffffffffffffffffffffffff168273ffffffffffffffffffffffffffffffffffffffff1614155b15611e83576000611d5f8461151a565b9050600073ffffffffffffffffffffffffffffffffffffffff168373ffffffffffffffffffffffffffffffffffffffff1614158015611dca57508273ffffffffffffffffffffffffffffffffffffffff168173ffffffffffffffffffffffffffffffffffffffff1614155b8015611ddd5750611ddb81846111ac565b155b15611e1f57826040517fa9fbf51f000000000000000000000000000000000000000000000000000000008152600401611e16919061299f565b60405180910390fd5b8115611e8157838573ffffffffffffffffffffffffffffffffffffffff168273ffffffffffffffffffffffffffffffffffffffff167f8c5be1e5ebec7d5bd14f71427d1e84f3dd0314c0f7b2291e5b200ac8c7c3b92560405160405180910390a45b505b836004600085815260200190815260200160002060006101000a81548173ffffffffffffffffffffffffffffffffffffffff021916908373ffffffffffffffffffffffffffffffffffffffff16021790555050505050565b611ee583836124fc565b611efa611ef06115df565b60008585856119f0565b505050565b600080611f0b84611cd9565b9050600073ffffffffffffffffffffffffffffffffffffffff168373ffffffffffffffffffffffffffffffffffffffff1614611f4d57611f4c8184866125f5565b5b600073ffffffffffffffffffffffffffffffffffffffff168173ffffffffffffffffffffffffffffffffffffffff1614611fde57611f8f600085600080611d16565b6001600360008373ffffffffffffffffffffffffffffffffffffffff1673ffffffffffffffffffffffffffffffffffffffff168152602001908152602001600020600082825403925050819055505b600073ffffffffffffffffffffffffffffffffffffffff168573ffffffffffffffffffffffffffffffffffffffff1614612061576001600360008773ffffffffffffffffffffffffffffffffffffffff1673ffffffffffffffffffffffffffffffffffffffff168152602001908152602001600020600082825401925050819055505b846002600086815260200190815260200160002060006101000a81548173ffffffffffffffffffffffffffffffffffffffff021916908373ffffffffffffffffffffffffffffffffffffffff160217905550838573ffffffffffffffffffffffffffffffffffffffff168273ffffffffffffffffffffffffffffffffffffffff167fddf252ad1be2c89b69c2b068fc378daa952ba7f163c4a11628f55a4df523b3ef60405160405180910390a4809150509392505050565b6008805490506009600083815260200190815260200160002081905550600881908060018154018082558091505060019003906000526020600020016000909190919091505550565b600061216d83610d49565b90506000600760008481526020019081526020016000205490506000600660008673ffffffffffffffffffffffffffffffffffffffff1673ffffffffffffffffffffffffffffffffffffffff16815260200190815260200160002090508282146122195760008160008581526020019081526020016000205490508082600085815260200190815260200160002081905550826007600083815260200190815260200160002081905550505b6007600085815260200190815260200160002060009055806000848152602001908152602001600020600090555050505050565b6000600160088054905061226191906136e3565b905060006009600084815260200190815260200160002054905060006008838154811061229157612290612f9a565b5b9060005260206000200154905080600883815481106122b3576122b2612f9a565b5b90600052602060002001819055508160096000838152602001908152602001600020819055506009600085815260200190815260200160002060009055600880548061230257612301613717565b5b6001900381819060005260206000200160009055905550505050565b6000600161232b84610d49565b61233591906136e3565b905081600660008573ffffffffffffffffffffffffffffffffffffffff1673ffffffffffffffffffffffffffffffffffffffff168152602001908152602001600020600083815260200190815260200160002081905550806007600084815260200190815260200160002081905550505050565b600080600090507a184f03e93ff9f4daa797ed6e38ed64bf6a1f0100000000000000008310612407577a184f03e93ff9f4daa797ed6e38ed64bf6a1f01000000000000000083816123fd576123fc6136b4565b5b0492506040810190505b6d04ee2d6d415b85acef81000000008310612444576d04ee2d6d415b85acef8100000000838161243a576124396136b4565b5b0492506020810190505b662386f26fc10000831061247357662386f26fc100008381612469576124686136b4565b5b0492506010810190505b6305f5e100831061249c576305f5e1008381612492576124916136b4565b5b0492506008810190505b61271083106124c15761271083816124b7576124b66136b4565b5b0492506004810190505b606483106124e457606483816124da576124d96136b4565b5b0492506002810190505b600a83106124f3576001810190505b80915050919050565b600073ffffffffffffffffffffffffffffffffffffffff168273ffffffffffffffffffffffffffffffffffffffff160361256e5760006040517f64a0ae92000000000000000000000000000000000000000000000000000000008152600401612565919061299f565b60405180910390fd5b600061257c83836000611617565b9050600073ffffffffffffffffffffffffffffffffffffffff168173ffffffffffffffffffffffffffffffffffffffff16146125f05760006040517f73c6ac6e0000000000000000000000000000000000000000000000000000000081526004016125e7919061299f565b60405180910390fd5b505050565b6126008383836126b9565b6126b457600073ffffffffffffffffffffffffffffffffffffffff168373ffffffffffffffffffffffffffffffffffffffff160361267557806040517f7e27328900000000000000000000000000000000000000000000000000000000815260040161266c9190612a35565b60405180910390fd5b81816040517f177e802f0000000000000000000000000000000000000000000000000000000081526004016126ab929190612f71565b60405180910390fd5b505050565b60008073ffffffffffffffffffffffffffffffffffffffff168373ffffffffffffffffffffffffffffffffffffffff161415801561277157508273ffffffffffffffffffffffffffffffffffffffff168473ffffffffffffffffffffffffffffffffffffffff161480612732575061273184846111ac565b5b8061277057508273ffffffffffffffffffffffffffffffffffffffff16612758836115a2565b73ffffffffffffffffffffffffffffffffffffffff16145b5b90509392505050565b6000604051905090565b600080fd5b600080fd5b60007fffffffff0000000000000000000000000000000000000000000000000000000082169050919050565b6127c38161278e565b81146127ce57600080fd5b50565b6000813590506127e0816127ba565b92915050565b6000602082840312156127fc576127fb612784565b5b600061280a848285016127d1565b91505092915050565b60008115159050919050565b61282881612813565b82525050565b6000602082019050612843600083018461281f565b92915050565b600081519050919050565b600082825260208201905092915050565b60005b83811015612883578082015181840152602081019050612868565b60008484015250505050565b6000601f19601f8301169050919050565b60006128ab82612849565b6128b58185612854565b93506128c5818560208601612865565b6128ce8161288f565b840191505092915050565b600060208201905081810360008301526128f381846128a0565b905092915050565b6000819050919050565b61290e816128fb565b811461291957600080fd5b50565b60008135905061292b81612905565b92915050565b60006020828403121561294757612946612784565b5b60006129558482850161291c565b91505092915050565b600073ffffffffffffffffffffffffffffffffffffffff82169050919050565b60006129898261295e565b9050919050565b6129998161297e565b82525050565b60006020820190506129b46000830184612990565b92915050565b6129c38161297e565b81146129ce57600080fd5b50565b6000813590506129e0816129ba565b92915050565b600080604083850312156129fd576129fc612784565b5b6000612a0b858286016129d1565b9250506020612a1c8582860161291c565b9150509250929050565b612a2f816128fb565b82525050565b6000602082019050612a4a6000830184612a26565b92915050565b600080600060608486031215612a6957612a68612784565b5b6000612a77868287016129d1565b9350506020612a88868287016129d1565b9250506040612a998682870161291c565b9150509250925092565b600080fd5b600080fd5b7f4e487b7100000000000000000000000000000000000000000000000000000000600052604160045260246000fd5b612ae58261288f565b810181811067ffffffffffffffff82111715612b0457612b03612aad565b5b80604052505050565b6000612b1761277a565b9050612b238282612adc565b919050565b600067ffffffffffffffff821115612b4357612b42612aad565b5b612b4c8261288f565b9050602081019050919050565b82818337600083830152505050565b6000612b7b612b7684612b28565b612b0d565b905082815260208101848484011115612b9757612b96612aa8565b5b612ba2848285612b59565b509392505050565b600082601f830112612bbf57612bbe612aa3565b5b8135612bcf848260208601612b68565b91505092915050565b600060208284031215612bee57612bed612784565b5b600082013567ffffffffffffffff811115612c0c57612c0b612789565b5b612c1884828501612baa565b91505092915050565b600060208284031215612c3757612c36612784565b5b6000612c45848285016129d1565b91505092915050565b612c5781612813565b8114612c6257600080fd5b50565b600081359050612c7481612c4e565b92915050565b60008060408385031215612c9157612c90612784565b5b6000612c9f858286016129d1565b9250506020612cb085828601612c65565b9150509250929050565b600067ffffffffffffffff821115612cd557612cd4612aad565b5b612cde8261288f565b9050602081019050919050565b6000612cfe612cf984612cba565b612b0d565b905082815260208101848484011115612d1a57612d19612aa8565b5b612d25848285612b59565b509392505050565b600082601f830112612d4257612d41612aa3565b5b8135612d52848260208601612ceb565b91505092915050565b60008060008060808587031215612d7557612d74612784565b5b6000612d83878288016129d1565b9450506020612d94878288016129d1565b9350506040612da58782880161291c565b925050606085013567ffffffffffffffff811115612dc657612dc5612789565b5b612dd287828801612d2d565b91505092959194509250565b6000608082019050612df36000830187612a26565b612e006020830186612a26565b612e0d6040830185612a26565b612e1a606083018461281f565b95945050505050565b60008060408385031215612e3a57612e39612784565b5b6000612e48858286016129d1565b9250506020612e59858286016129d1565b9150509250929050565b7f4e487b7100000000000000000000000000000000000000000000000000000000600052602260045260246000fd5b60006002820490506001821680612eaa57607f821691505b602082108103612ebd57612ebc612e63565b5b50919050565b7f4e487b7100000000000000000000000000000000000000000000000000000000600052601160045260246000fd5b6000612efd826128fb565b91507fffffffffffffffffffffffffffffffffffffffffffffffffffffffffffffffff8203612f2f57612f2e612ec3565b5b600182019050919050565b6000606082019050612f4f6000830186612990565b612f5c6020830185612a26565b612f696040830184612990565b949350505050565b6000604082019050612f866000830185612990565b612f936020830184612a26565b9392505050565b7f4e487b7100000000000000000000000000000000000000000000000000000000600052603260045260246000fd5b60008190508160005260206000209050919050565b60006020601f8301049050919050565b600082821b905092915050565b60006008830261302b7fffffffffffffffffffffffffffffffffffffffffffffffffffffffffffffffff82612fee565b6130358683612fee565b95508019841693508086168417925050509392505050565b6000819050919050565b600061307261306d613068846128fb565b61304d565b6128fb565b9050919050565b6000819050919050565b61308c83613057565b6130a061309882613079565b848454612ffb565b825550505050565b600090565b6130b56130a8565b6130c0818484613083565b505050565b5b818110156130e4576130d96000826130ad565b6001810190506130c6565b5050565b601f821115613129576130fa81612fc9565b61310384612fde565b81016020851015613112578190505b61312661311e85612fde565b8301826130c5565b50505b505050565b600082821c905092915050565b600061314c6000198460080261312e565b1980831691505092915050565b6000613165838361313b565b9150826002028217905092915050565b61317e82612849565b67ffffffffffffffff81111561319757613196612aad565b5b6131a18254612e92565b6131ac8282856130e8565b600060209050601f8311600181146131df57600084156131cd578287015190505b6131d78582613159565b86555061323f565b601f1984166131ed86612fc9565b60005b82811015613215578489015182556001820191506020850194506020810190506131f0565b86831015613232578489015161322e601f89168261313b565b8355505b6001600288020188555050505b505050505050565b6000613252826128fb565b915061325d836128fb565b925082820190508082111561327557613274612ec3565b5b92915050565b7f4e6f7420796f7572206c6f627374657221000000000000000000000000000000600082015250565b60006132b1601183612854565b91506132bc8261327b565b602082019050919050565b600060208201905081810360008301526132e0816132a4565b9050919050565b7f4e6f742068696265726e6174696e672100000000000000000000000000000000600082015250565b600061331d601083612854565b9150613328826132e7565b602082019050919050565b6000602082019050818103600083015261334c81613310565b9050919050565b7f52657669766520636f73743a20302e3030312045544800000000000000000000600082015250565b6000613389601683612854565b915061339482613353565b602082019050919050565b600060208201905081810360008301526133b88161337c565b9050919050565b600081905092915050565b600081546133d781612e92565b6133e181866133bf565b945060018216600081146133fc576001811461341157613444565b60ff1983168652811515820286019350613444565b61341a85612fc9565b60005b8381101561343c5781548189015260018201915060208101905061341d565b838801955050505b50505092915050565b600061345882612849565b61346281856133bf565b9350613472818560208601612865565b80840191505092915050565b7f2e6a736f6e000000000000000000000000000000000000000000000000000000600082015250565b60006134b46005836133bf565b91506134bf8261347e565b600582019050919050565b60006134d682856133ca565b91506134e2828461344d565b91506134ed826134a7565b91508190509392505050565b7f546f6f2066756c6c210000000000000000000000000000000000000000000000600082015250565b600061352f600983612854565b915061353a826134f9565b602082019050919050565b6000602082019050818103600083015261355e81613522565b9050919050565b7f496e2068696265726e6174696f6e2c2072657669766520666972737421000000600082015250565b600061359b601d83612854565b91506135a682613565565b602082019050919050565b600060208201905081810360008301526135ca8161358e565b9050919050565b600081519050919050565b600082825260208201905092915050565b60006135f8826135d1565b61360281856135dc565b9350613612818560208601612865565b61361b8161288f565b840191505092915050565b600060808201905061363b6000830187612990565b6136486020830186612990565b6136556040830185612a26565b818103606083015261366781846135ed565b905095945050505050565b600081519050613681816127ba565b92915050565b60006020828403121561369d5761369c612784565b5b60006136ab84828501613672565b91505092915050565b7f4e487b7100000000000000000000000000000000000000000000000000000000600052601260045260246000fd5b60006136ee826128fb565b91506136f9836128fb565b925082820390508181111561371157613710612ec3565b5b92915050565b7f4e487b7100000000000000000000000000000000000000000000000000000000600052603160045260246000fdfea264697066735822122017c5ed74b91563cb916a8cc6c069c81befdc3793e0fec36b62667427d02f06b564736f6c63430008140033",
  "linkReferences": {},
  "deployedLinkReferences": {}
}